{
  "contractName": "BarBet",
  "abi": [
    {
      "constant": false,
      "inputs": [
        {
          "name": "betHash",
          "type": "bytes32"
        },
        {
          "name": "proposerWon",
          "type": "bool"
        }
      ],
      "name": "settleBet",
      "outputs": [
        {
          "name": "",
          "type": "bytes32"
        }
      ],
      "payable": false,
      "stateMutability": "nonpayable",
      "type": "function"
    },
    {
      "constant": false,
      "inputs": [
        {
          "name": "betHash",
          "type": "bytes32"
        }
      ],
      "name": "cancelBet",
      "outputs": [
        {
          "name": "",
          "type": "bytes32"
        }
      ],
      "payable": false,
      "stateMutability": "nonpayable",
      "type": "function"
    },
    {
      "constant": false,
      "inputs": [
        {
          "name": "betHash",
          "type": "bytes32"
        }
      ],
      "name": "kill",
      "outputs": [
        {
          "name": "",
          "type": "address"
        },
        {
          "name": "",
          "type": "address"
        },
        {
          "name": "",
          "type": "address"
        },
        {
          "name": "",
          "type": "string"
        },
        {
          "name": "",
          "type": "uint256"
        },
        {
          "name": "",
          "type": "bool"
        },
        {
          "name": "",
          "type": "bool"
        }
      ],
      "payable": false,
      "stateMutability": "nonpayable",
      "type": "function"
    },
    {
      "constant": false,
      "inputs": [
        {
          "name": "accepter",
          "type": "address"
        },
        {
          "name": "arbiter",
          "type": "address"
        },
        {
          "name": "winningCondition",
          "type": "string"
        }
      ],
      "name": "createBet",
      "outputs": [
        {
          "name": "",
          "type": "bytes32"
        }
      ],
      "payable": true,
      "stateMutability": "payable",
      "type": "function"
    },
    {
      "constant": true,
      "inputs": [
        {
          "name": "accepter",
          "type": "address"
        },
        {
          "name": "arbiter",
          "type": "address"
        },
        {
          "name": "winningCondition",
          "type": "string"
        }
      ],
      "name": "owner",
      "outputs": [
        {
          "name": "",
          "type": "address"
        }
      ],
      "payable": false,
      "stateMutability": "view",
      "type": "function"
    },
    {
      "constant": true,
      "inputs": [
        {
          "name": "",
          "type": "bytes32"
        }
      ],
      "name": "bets",
      "outputs": [
        {
          "name": "proposer",
          "type": "address"
        },
        {
          "name": "accepter",
          "type": "address"
        },
        {
          "name": "arbiter",
          "type": "address"
        },
        {
          "name": "winningCondition",
          "type": "string"
        },
        {
          "name": "value",
          "type": "uint256"
        },
        {
          "name": "paid",
          "type": "bool"
        },
        {
          "name": "settled",
          "type": "bool"
        }
      ],
      "payable": false,
      "stateMutability": "view",
      "type": "function"
    },
    {
      "constant": false,
      "inputs": [
        {
          "name": "betHash",
          "type": "bytes32"
        }
      ],
      "name": "acceptBet",
      "outputs": [
        {
          "name": "",
          "type": "bytes32"
        },
        {
          "name": "accepter",
          "type": "address"
        },
        {
          "name": "arbiter",
          "type": "address"
        },
        {
          "name": "winningCondition",
          "type": "string"
        },
        {
          "name": "value",
          "type": "uint256"
        },
        {
          "name": "paid",
          "type": "bool"
        },
        {
          "name": "settled",
          "type": "bool"
        }
      ],
      "payable": true,
      "stateMutability": "payable",
      "type": "function"
    },
    {
      "inputs": [
        {
          "name": "betHash",
          "type": "bytes32"
        }
      ],
      "payable": false,
      "stateMutability": "nonpayable",
      "type": "constructor",
      "constant": false,
      "name": "acceptBet",
      "outputs": [
        {
          "name": "",
          "type": "bytes32"
        }
      ]
    },
    {
      "payable": true,
      "stateMutability": "payable",
      "type": "fallback",
      "inputs": []
    },
    {
      "anonymous": false,
      "inputs": [
        {
          "indexed": false,
          "name": "betHash",
          "type": "bytes32"
        }
      ],
      "name": "BetCreated",
      "type": "event",
      "payable": true,
      "stateMutability": "payable"
    },
    {
      "anonymous": false,
      "inputs": [
        {
          "indexed": false,
          "name": "betHash",
          "type": "bytes32"
        }
      ],
      "name": "BetCancelled",
      "type": "event"
    },
    {
      "anonymous": false,
      "inputs": [
        {
          "indexed": false,
          "name": "betHash",
          "type": "bytes32"
        }
      ],
      "name": "BetAccepted",
      "type": "event"
    },
    {
      "anonymous": false,
      "inputs": [
        {
          "indexed": false,
          "name": "betHash",
          "type": "bytes32"
        }
      ],
      "name": "BetSettled",
      "type": "event"
    },
    {
      "anonymous": false,
      "inputs": [
        {
          "indexed": false,
          "name": "accepter",
          "type": "address"
        },
        {
          "indexed": false,
          "name": "sender",
          "type": "address"
        }
      ],
      "name": "Test",
      "type": "event"
    },
    {
      "anonymous": false,
      "inputs": [
        {
          "indexed": false,
          "name": "accepter",
          "type": "address"
        },
        {
          "indexed": false,
          "name": "sender",
          "type": "address"
        },
        {
          "indexed": false,
          "name": "arbiter",
          "type": "address"
        },
        {
          "indexed": false,
          "name": "winningCondition",
          "type": "string"
        },
        {
          "indexed": false,
          "name": "value",
          "type": "uint256"
        },
        {
          "indexed": false,
          "name": "paid",
          "type": "bool"
        },
        {
          "indexed": false,
          "name": "settled",
          "type": "bool"
        }
      ],
      "name": "OtherTest",
      "type": "event"
    }
  ],
  "bytecode": "0x6060604052341561000f57600080fd5b336000806101000a81548173ffffffffffffffffffffffffffffffffffffffff021916908373ffffffffffffffffffffffffffffffffffffffff160217905550610ede8061005e6000396000f300606060405260043610610083576000357c0100000000000000000000000000000000000000000000000000000000900463ffffffff1680632597f6eb146100855780632940ff1e146100d357806341c0e1b5146101165780637f830ada1461012b5780638da5cb5b146101d7578063c902c3ae1461022c578063e4a7d11b1461039f575b005b341561009057600080fd5b6100b560048080356000191690602001909190803515159060200190919050506103d7565b60405180826000191660001916815260200191505060405180910390f35b34156100de57600080fd5b6100f86004808035600019169060200190919050506105e5565b60405180826000191660001916815260200191505060405180910390f35b341561012157600080fd5b6101296107e6565b005b6101b9600480803573ffffffffffffffffffffffffffffffffffffffff1690602001909190803573ffffffffffffffffffffffffffffffffffffffff1690602001909190803590602001908201803590602001908080601f0160208091040260200160405190810160405280939291908181526020018383808284378201915050505050509190505061087b565b60405180826000191660001916815260200191505060405180910390f35b34156101e257600080fd5b6101ea610bcc565b604051808273ffffffffffffffffffffffffffffffffffffffff1673ffffffffffffffffffffffffffffffffffffffff16815260200191505060405180910390f35b341561023757600080fd5b610251600480803560001916906020019091905050610bf1565b604051808873ffffffffffffffffffffffffffffffffffffffff1673ffffffffffffffffffffffffffffffffffffffff1681526020018773ffffffffffffffffffffffffffffffffffffffff1673ffffffffffffffffffffffffffffffffffffffff1681526020018673ffffffffffffffffffffffffffffffffffffffff1673ffffffffffffffffffffffffffffffffffffffff16815260200180602001858152602001841515151581526020018315151515815260200182810382528681815460018160011615610100020316600290048152602001915080546001816001161561010002031660029004801561038a5780601f1061035f5761010080835404028352916020019161038a565b820191906000526020600020905b81548152906001019060200180831161036d57829003601f168201915b50509850505050505050505060405180910390f35b6103b9600480803560001916906020019091905050610cac565b60405180826000191660001916815260200191505060405180910390f35b60008060016000856000191660001916815260200190815260200160002090503373ffffffffffffffffffffffffffffffffffffffff168160020160009054906101000a900473ffffffffffffffffffffffffffffffffffffffff1673ffffffffffffffffffffffffffffffffffffffff1614151561045557600080fd5b600115158160050160009054906101000a900460ff16151514151561047957600080fd5b600015158160050160019054906101000a900460ff16151514151561049d57600080fd5b8215610513578060000160009054906101000a900473ffffffffffffffffffffffffffffffffffffffff1673ffffffffffffffffffffffffffffffffffffffff166108fc60028360040154029081150290604051600060405180830381858888f19350505050151561050e57600080fd5b61057f565b8060010160009054906101000a900473ffffffffffffffffffffffffffffffffffffffff1673ffffffffffffffffffffffffffffffffffffffff166108fc60028360040154029081150290604051600060405180830381858888f19350505050151561057e57600080fd5b5b60018160050160016101000a81548160ff0219169083151502179055507ff04eba63c96984824af8d244b66ec3f4b3980fe2dafd9140657371787d4370738460405180826000191660001916815260200191505060405180910390a18391505092915050565b60008060016000846000191660001916815260200190815260200160002090503373ffffffffffffffffffffffffffffffffffffffff168160000160009054906101000a900473ffffffffffffffffffffffffffffffffffffffff1673ffffffffffffffffffffffffffffffffffffffff1614151561066357600080fd5b600015158160050160009054906101000a900460ff16151514151561068757600080fd5b600160008460001916600019168152602001908152602001600020600080820160006101000a81549073ffffffffffffffffffffffffffffffffffffffff02191690556001820160006101000a81549073ffffffffffffffffffffffffffffffffffffffff02191690556002820160006101000a81549073ffffffffffffffffffffffffffffffffffffffff02191690556003820160006107289190610dc5565b60048201600090556005820160006101000a81549060ff02191690556005820160016101000a81549060ff021916905550503373ffffffffffffffffffffffffffffffffffffffff166108fc82600401549081150290604051600060405180830381858888f19350505050151561079e57600080fd5b7f3cbdc7eb21ed81d87dcb35fa352a5e60e8217927182bcb362f37fe6a5fb6bcbd8360405180826000191660001916815260200191505060405180910390a182915050919050565b6000809054906101000a900473ffffffffffffffffffffffffffffffffffffffff1673ffffffffffffffffffffffffffffffffffffffff163373ffffffffffffffffffffffffffffffffffffffff1614151561084157600080fd5b6000809054906101000a900473ffffffffffffffffffffffffffffffffffffffff1673ffffffffffffffffffffffffffffffffffffffff16ff5b60008033858585604051808573ffffffffffffffffffffffffffffffffffffffff1673ffffffffffffffffffffffffffffffffffffffff166c010000000000000000000000000281526014018473ffffffffffffffffffffffffffffffffffffffff1673ffffffffffffffffffffffffffffffffffffffff166c010000000000000000000000000281526014018373ffffffffffffffffffffffffffffffffffffffff1673ffffffffffffffffffffffffffffffffffffffff166c0100000000000000000000000002815260140182805190602001908083835b60208310151561097a5780518252602082019150602081019050602083039250610955565b6001836020036101000a0380198251168184511680821785525050505050509050019450505050506040518091039020905060e0604051908101604052803373ffffffffffffffffffffffffffffffffffffffff1681526020018673ffffffffffffffffffffffffffffffffffffffff1681526020018573ffffffffffffffffffffffffffffffffffffffff1681526020018481526020013481526020016000151581526020016000151581525060016000836000191660001916815260200190815260200160002060008201518160000160006101000a81548173ffffffffffffffffffffffffffffffffffffffff021916908373ffffffffffffffffffffffffffffffffffffffff16021790555060208201518160010160006101000a81548173ffffffffffffffffffffffffffffffffffffffff021916908373ffffffffffffffffffffffffffffffffffffffff16021790555060408201518160020160006101000a81548173ffffffffffffffffffffffffffffffffffffffff021916908373ffffffffffffffffffffffffffffffffffffffff1602179055506060820151816003019080519060200190610b34929190610e0d565b506080820151816004015560a08201518160050160006101000a81548160ff02191690831515021790555060c08201518160050160016101000a81548160ff0219169083151502179055509050507f2557b1e10436ec91dce34a59bd5a56d098cd19da2b3ebcd37fdc4b01e378acda8160405180826000191660001916815260200191505060405180910390a1809150509392505050565b6000809054906101000a900473ffffffffffffffffffffffffffffffffffffffff1681565b60016020528060005260406000206000915090508060000160009054906101000a900473ffffffffffffffffffffffffffffffffffffffff16908060010160009054906101000a900473ffffffffffffffffffffffffffffffffffffffff16908060020160009054906101000a900473ffffffffffffffffffffffffffffffffffffffff169080600301908060040154908060050160009054906101000a900460ff16908060050160019054906101000a900460ff16905087565b60008060016000846000191660001916815260200190815260200160002090503373ffffffffffffffffffffffffffffffffffffffff168160010160009054906101000a900473ffffffffffffffffffffffffffffffffffffffff1673ffffffffffffffffffffffffffffffffffffffff16141515610d2a57600080fd5b600015158160050160009054906101000a900460ff161515141515610d4e57600080fd5b348160040154141515610d6057600080fd5b60018160050160006101000a81548160ff0219169083151502179055507f22a77e0059555f48715bfc3b25a8bdd9c3271a3c4ccbeaabed90ba39ad128ef38360405180826000191660001916815260200191505060405180910390a182915050919050565b50805460018160011615610100020316600290046000825580601f10610deb5750610e0a565b601f016020900490600052602060002090810190610e099190610e8d565b5b50565b828054600181600116156101000203166002900490600052602060002090601f016020900481019282601f10610e4e57805160ff1916838001178555610e7c565b82800160010185558215610e7c579182015b82811115610e7b578251825591602001919060010190610e60565b5b509050610e899190610e8d565b5090565b610eaf91905b80821115610eab576000816000905550600101610e93565b5090565b905600a165627a7a723058208b6f0a7988d6c0b8ffd560318acb0bed98f264b5af87b55dc440459f6800d09a0029",
  "source": "pragma solidity ^0.4.17;\n\ncontract BarBet {\n    // owner of the contract\n    address public owner;\n    \n    // struct to represent a bet made between\n    // two addresses\n    struct Bet {\n        // gambler who wants condition to be true\n        address proposer;\n        // gambler who wants condition to be false\n        address accepter;\n        // gambler who determines whether bet was won or lots\n        address arbiter;\n        // if this happens, proposer wins\n        string winningCondition;\n        // each person sends this much money to the contract\n        uint value;\n        // bet has been paid by both parties\n        bool paid;\n        // bet has been settled by arbiter\n        bool settled;\n    }\n    \n    // mapping of betHashes to bets\n    // hashes are in keccak-256\n    mapping(bytes32 => Bet) public bets;\n    \n    // constructor -- only run at the beginning\n    function BarBet() public {\n        owner = msg.sender;\n    }\n    \n    // function to kill contract\n    // can only be called by owner\n    function kill() public {\n        require(msg.sender == owner);\n        selfdestruct(owner);\n    }\n    \n    // fallback function\n    function() public payable {}\n\n    // events for each function\n    event BetCreated(bytes32 betHash);\n    event BetCancelled(bytes32 betHash);\n    event BetAccepted(bytes32 betHash);\n    event BetSettled(bytes32 betHash);\n\n    // create a bet as the proposer\n    function createBet(address accepter, address arbiter, string winningCondition) public payable returns (bytes32) {\n        bytes32 betHash = keccak256(msg.sender,accepter,arbiter,winningCondition);\n        bets[betHash] = (Bet(msg.sender, accepter, arbiter, winningCondition, msg.value, false, false));\n        BetCreated(betHash);\n        return betHash;\n    }\n    \n    // cancel bet as proposer before other side is paid\n    function cancelBet(bytes32 betHash) public returns(bytes32) {\n        Bet storage b = bets[betHash];\n        // make sure it's proposer\n        require(b.proposer == msg.sender);\n        // make sure it hasn't been paid by the other party yet\n        require(b.paid == false);\n        delete bets[betHash];\n        msg.sender.transfer(b.value);\n        BetCancelled(betHash);\n        return betHash;\n    }\n    \n    // accept a bet as the accepter\n    function acceptBet(bytes32 betHash) public payable returns(bytes32) {\n        Bet storage b = bets[betHash];\n        // check to make sure that the bet exists and it's the correct accepter\n        require(b.accepter == msg.sender);\n        // check to make sure it hasn't been paid yet\n        require(b.paid == false);\n        // check to make sure they paid the correct amount\n        require(b.value == msg.value);\n        b.paid = true;\n        BetAccepted(betHash);\n        return betHash;\n    }\n    \n    // settle a bet as the arbiter\n    function settleBet(bytes32 betHash, bool proposerWon) public returns(bytes32) {\n        Bet storage b = bets[betHash];\n        // make sure it's actually the arbiter\n        require(b.arbiter == msg.sender);\n        // make sure it's been paid by both parties\n        require(b.paid == true);\n        // make sure it hasn't been settled yet\n        require(b.settled == false);\n        if (proposerWon) {\n            // if proposer won, send double value\n            // their escrowed funds plus accepter's\n            b.proposer.transfer(b.value*2);\n        } else {\n            b.accepter.transfer(b.value*2);\n        }\n        // mark as settled\n        b.settled = true;\n        BetSettled(betHash);\n        return betHash;\n    }\n}",
  "sourcePath": "/Users/owenauch/git/personal_projects/bar-bet-ethereum/contracts/BarBet.sol",
  "compiler": {
    "name": "solc",
    "version": "0.4.18+commit.9cf6e910.Emscripten.clang"
  },
  "schemaVersion": "1.0.1",
  "updatedAt": "2018-02-22T12:20:20.277Z"
}