{
  "contractName": "BarBet",
  "abi": [
    {
      "constant": false,
      "inputs": [
        {
          "name": "betHash",
          "type": "bytes32"
        },
        {
          "name": "proposerWon",
          "type": "bool"
        }
      ],
      "name": "settleBet",
      "outputs": [
        {
          "name": "",
          "type": "bytes32"
        }
      ],
      "payable": false,
      "stateMutability": "nonpayable",
      "type": "function"
    },
    {
      "constant": false,
      "inputs": [
        {
          "name": "betHash",
          "type": "bytes32"
        }
      ],
      "name": "cancelBet",
      "outputs": [
        {
          "name": "",
          "type": "bytes32"
        }
      ],
      "payable": false,
      "stateMutability": "nonpayable",
      "type": "function"
    },
    {
      "constant": false,
      "inputs": [],
      "name": "kill",
      "outputs": [],
      "payable": false,
      "stateMutability": "nonpayable",
      "type": "function"
    },
    {
      "constant": false,
      "inputs": [
        {
          "name": "accepter",
          "type": "address"
        },
        {
          "name": "arbiter",
          "type": "address"
        },
        {
          "name": "winningCondition",
          "type": "string"
        }
      ],
      "name": "createBet",
      "outputs": [
        {
          "name": "",
          "type": "bytes32"
        }
      ],
      "payable": true,
      "stateMutability": "payable",
      "type": "function"
    },
    {
      "constant": true,
      "inputs": [],
      "name": "owner",
      "outputs": [
        {
          "name": "",
          "type": "address"
        }
      ],
      "payable": false,
      "stateMutability": "view",
      "type": "function"
    },
    {
      "constant": true,
      "inputs": [
        {
          "name": "",
          "type": "bytes32"
        }
      ],
      "name": "bets",
      "outputs": [
        {
          "name": "proposer",
          "type": "address"
        },
        {
          "name": "accepter",
          "type": "address"
        },
        {
          "name": "arbiter",
          "type": "address"
        },
        {
          "name": "winningCondition",
          "type": "string"
        },
        {
          "name": "value",
          "type": "uint256"
        },
        {
          "name": "paid",
          "type": "bool"
        },
        {
          "name": "settled",
          "type": "bool"
        }
      ],
      "payable": false,
      "stateMutability": "view",
      "type": "function"
    },
    {
      "constant": false,
      "inputs": [
        {
          "name": "betHash",
          "type": "bytes32"
        }
      ],
      "name": "acceptBet",
      "outputs": [
        {
          "name": "",
          "type": "bytes32"
        }
      ],
      "payable": true,
      "stateMutability": "payable",
      "type": "function"
    },
    {
      "inputs": [],
      "payable": false,
      "stateMutability": "nonpayable",
      "type": "constructor"
    },
    {
      "payable": true,
      "stateMutability": "payable",
      "type": "fallback"
    }
  ],
  "bytecode": "0x6060604052341561000f57600080fd5b336000806101000a81548173ffffffffffffffffffffffffffffffffffffffff021916908373ffffffffffffffffffffffffffffffffffffffff160217905550610cc78061005e6000396000f300606060405260043610610083576000357c0100000000000000000000000000000000000000000000000000000000900463ffffffff1680632597f6eb146100855780632940ff1e146100d357806341c0e1b5146101165780637f830ada1461012b5780638da5cb5b146101d7578063c902c3ae1461022c578063e4a7d11b1461039f575b005b341561009057600080fd5b6100b560048080356000191690602001909190803515159060200190919050506103d7565b60405180826000191660001916815260200191505060405180910390f35b34156100de57600080fd5b6100f86004808035600019169060200190919050506105a6565b60405180826000191660001916815260200191505060405180910390f35b341561012157600080fd5b610129610695565b005b6101b9600480803573ffffffffffffffffffffffffffffffffffffffff1690602001909190803573ffffffffffffffffffffffffffffffffffffffff1690602001909190803590602001908201803590602001908080601f0160208091040260200160405190810160405280939291908181526020018383808284378201915050505050509190505061072a565b60405180826000191660001916815260200191505060405180910390f35b34156101e257600080fd5b6101ea610a3c565b604051808273ffffffffffffffffffffffffffffffffffffffff1673ffffffffffffffffffffffffffffffffffffffff16815260200191505060405180910390f35b341561023757600080fd5b610251600480803560001916906020019091905050610a61565b604051808873ffffffffffffffffffffffffffffffffffffffff1673ffffffffffffffffffffffffffffffffffffffff1681526020018773ffffffffffffffffffffffffffffffffffffffff1673ffffffffffffffffffffffffffffffffffffffff1681526020018673ffffffffffffffffffffffffffffffffffffffff1673ffffffffffffffffffffffffffffffffffffffff16815260200180602001858152602001841515151581526020018315151515815260200182810382528681815460018160011615610100020316600290048152602001915080546001816001161561010002031660029004801561038a5780601f1061035f5761010080835404028352916020019161038a565b820191906000526020600020905b81548152906001019060200180831161036d57829003601f168201915b50509850505050505050505060405180910390f35b6103b9600480803560001916906020019091905050610b1c565b60405180826000191660001916815260200191505060405180910390f35b60008060016000856000191660001916815260200190815260200160002090503373ffffffffffffffffffffffffffffffffffffffff168160020160009054906101000a900473ffffffffffffffffffffffffffffffffffffffff1673ffffffffffffffffffffffffffffffffffffffff1614151561045557600080fd5b600115158160050160009054906101000a900460ff16151514151561047957600080fd5b600015158160050160019054906101000a900460ff16151514151561049d57600080fd5b8215610513578060000160009054906101000a900473ffffffffffffffffffffffffffffffffffffffff1673ffffffffffffffffffffffffffffffffffffffff166108fc60028360040154029081150290604051600060405180830381858888f19350505050151561050e57600080fd5b61057f565b8060010160009054906101000a900473ffffffffffffffffffffffffffffffffffffffff1673ffffffffffffffffffffffffffffffffffffffff166108fc60028360040154029081150290604051600060405180830381858888f19350505050151561057e57600080fd5b5b60018160050160016101000a81548160ff0219169083151502179055508391505092915050565b60008060016000846000191660001916815260200190815260200160002090503373ffffffffffffffffffffffffffffffffffffffff168160000160009054906101000a900473ffffffffffffffffffffffffffffffffffffffff1673ffffffffffffffffffffffffffffffffffffffff1614151561062457600080fd5b600015158160050160009054906101000a900460ff16151514151561064857600080fd5b3373ffffffffffffffffffffffffffffffffffffffff166108fc82600401549081150290604051600060405180830381858888f19350505050151561068c57600080fd5b82915050919050565b6000809054906101000a900473ffffffffffffffffffffffffffffffffffffffff1673ffffffffffffffffffffffffffffffffffffffff163373ffffffffffffffffffffffffffffffffffffffff161415156106f057600080fd5b6000809054906101000a900473ffffffffffffffffffffffffffffffffffffffff1673ffffffffffffffffffffffffffffffffffffffff16ff5b60008033858585604051808573ffffffffffffffffffffffffffffffffffffffff1673ffffffffffffffffffffffffffffffffffffffff166c010000000000000000000000000281526014018473ffffffffffffffffffffffffffffffffffffffff1673ffffffffffffffffffffffffffffffffffffffff166c010000000000000000000000000281526014018373ffffffffffffffffffffffffffffffffffffffff1673ffffffffffffffffffffffffffffffffffffffff166c0100000000000000000000000002815260140182805190602001908083835b6020831015156108295780518252602082019150602081019050602083039250610804565b6001836020036101000a0380198251168184511680821785525050505050509050019450505050506040518091039020905060e0604051908101604052803373ffffffffffffffffffffffffffffffffffffffff1681526020018673ffffffffffffffffffffffffffffffffffffffff1681526020018573ffffffffffffffffffffffffffffffffffffffff1681526020018481526020013481526020016000151581526020016000151581525060016000836000191660001916815260200190815260200160002060008201518160000160006101000a81548173ffffffffffffffffffffffffffffffffffffffff021916908373ffffffffffffffffffffffffffffffffffffffff16021790555060208201518160010160006101000a81548173ffffffffffffffffffffffffffffffffffffffff021916908373ffffffffffffffffffffffffffffffffffffffff16021790555060408201518160020160006101000a81548173ffffffffffffffffffffffffffffffffffffffff021916908373ffffffffffffffffffffffffffffffffffffffff16021790555060608201518160030190805190602001906109e3929190610bf6565b506080820151816004015560a08201518160050160006101000a81548160ff02191690831515021790555060c08201518160050160016101000a81548160ff021916908315150217905550905050809150509392505050565b6000809054906101000a900473ffffffffffffffffffffffffffffffffffffffff1681565b60016020528060005260406000206000915090508060000160009054906101000a900473ffffffffffffffffffffffffffffffffffffffff16908060010160009054906101000a900473ffffffffffffffffffffffffffffffffffffffff16908060020160009054906101000a900473ffffffffffffffffffffffffffffffffffffffff169080600301908060040154908060050160009054906101000a900460ff16908060050160019054906101000a900460ff16905087565b60008060016000846000191660001916815260200190815260200160002090503373ffffffffffffffffffffffffffffffffffffffff168160010160009054906101000a900473ffffffffffffffffffffffffffffffffffffffff1673ffffffffffffffffffffffffffffffffffffffff16141515610b9a57600080fd5b600015158160050160009054906101000a900460ff161515141515610bbe57600080fd5b348160040154141515610bd057600080fd5b60018160050160006101000a81548160ff02191690831515021790555082915050919050565b828054600181600116156101000203166002900490600052602060002090601f016020900481019282601f10610c3757805160ff1916838001178555610c65565b82800160010185558215610c65579182015b82811115610c64578251825591602001919060010190610c49565b5b509050610c729190610c76565b5090565b610c9891905b80821115610c94576000816000905550600101610c7c565b5090565b905600a165627a7a72305820a6dd3197b71fc73db66b061b67ce335a2ee3140ef92440205237e8958127931c0029",
  "source": "pragma solidity ^0.4.17;\n\ncontract BarBet {\n    // owner of the contract\n    address public owner;\n    \n    // struct to represent a bet made between\n    // two addresses\n    struct Bet {\n        // gambler who wants condition to be true\n        address proposer;\n        // gambler who wants condition to be false\n        address accepter;\n        // gambler who determines whether bet was won or lots\n        address arbiter;\n        // if this happens, proposer wins\n        string winningCondition;\n        // each person sends this much money to the contract\n        uint value;\n        // bet has been paid by both parties\n        bool paid;\n        // bet has been settled by arbiter\n        bool settled;\n    }\n    \n    // mapping of betHashes to bets\n    // hashes are in keccak-256\n    mapping(bytes32 => Bet) public bets;\n    \n    // constructor -- only run at the beginning\n    function BarBet() public {\n        owner = msg.sender;\n    }\n    \n    // function to kill contract\n    // can only be called by owner\n    function kill() public {\n        require(msg.sender == owner);\n        selfdestruct(owner);\n    }\n    \n    // fallback function\n    function() public payable {}\n    \n    // create a bet as the proposer\n    function createBet(address accepter, address arbiter, string winningCondition) public payable returns (bytes32) {\n        bytes32 betHash = keccak256(msg.sender,accepter,arbiter,winningCondition);\n        bets[betHash] = (Bet(msg.sender, accepter, arbiter, winningCondition, msg.value, false, false));\n        return betHash;\n    }\n    \n    // cancel bet as proposer before other side is paid\n    function cancelBet(bytes32 betHash) public returns(bytes32) {\n        Bet storage b = bets[betHash];\n        // make sure it's proposer\n        require(b.proposer == msg.sender);\n        // make sure it hasn't been paid by the other party yet\n        require(b.paid == false);\n        msg.sender.transfer(b.value);\n        return betHash;\n    }\n    \n    // accept a bet as the accepter\n    function acceptBet(bytes32 betHash) public payable returns(bytes32) {\n        Bet storage b = bets[betHash];\n        // check to make sure that the bet exists and it's the correct accepter\n        require(b.accepter == msg.sender);\n        // check to make sure it hasn't been paid yet\n        require(b.paid == false);\n        // check to make sure they paid the correct amount\n        require(b.value == msg.value);\n        b.paid = true;\n        return betHash;\n    }\n    \n    // settle a bet as the arbiter\n    function settleBet(bytes32 betHash, bool proposerWon) public returns(bytes32) {\n        Bet storage b = bets[betHash];\n        // make sure it's actually the arbiter\n        require(b.arbiter == msg.sender);\n        // make sure it's been paid by both parties\n        require(b.paid == true);\n        // make sure it hasn't been settled yet\n        require(b.settled == false);\n        if (proposerWon) {\n            // if proposer won, send double value\n            // their escrowed funds plus accepter's\n            b.proposer.transfer(b.value*2);\n        } else {\n            b.accepter.transfer(b.value*2);\n        }\n        // mark as settled\n        b.settled = true;\n        return betHash;\n    }\n}\n",
  "sourcePath": "/Users/owenauch/git/personal_projects/bar-bet-ethereum/contracts/BarBet.sol",
  "compiler": {
    "name": "solc",
    "version": "0.4.18+commit.9cf6e910.Emscripten.clang"
  },
  "schemaVersion": "1.0.1",
  "updatedAt": "2018-02-20T19:24:56.094Z"
}