{
  "contractName": "BarBet",
  "abi": [
    {
      "constant": false,
      "inputs": [
        {
          "name": "betHash",
          "type": "bytes32"
        },
        {
          "name": "proposerWon",
          "type": "bool"
        }
      ],
      "name": "settleBet",
      "outputs": [
        {
          "name": "",
          "type": "bytes32"
        }
      ],
      "payable": false,
      "stateMutability": "nonpayable",
      "type": "function"
    },
    {
      "constant": false,
      "inputs": [
        {
          "name": "betHash",
          "type": "bytes32"
        }
      ],
      "name": "cancelBet",
      "outputs": [
        {
          "name": "",
          "type": "bytes32"
        }
      ],
      "payable": false,
      "stateMutability": "nonpayable",
      "type": "function"
    },
    {
      "constant": false,
      "inputs": [
        {
          "name": "betHash",
          "type": "bytes32"
        }
      ],
      "name": "getBet",
      "outputs": [
        {
          "name": "",
          "type": "address"
        },
        {
          "name": "",
          "type": "address"
        },
        {
          "name": "",
          "type": "address"
        },
        {
          "name": "",
          "type": "string"
        },
        {
          "name": "",
          "type": "uint256"
        },
        {
          "name": "",
          "type": "bool"
        },
        {
          "name": "",
          "type": "bool"
        }
      ],
      "payable": false,
      "stateMutability": "nonpayable",
      "type": "function"
    },
    {
      "constant": false,
      "inputs": [
        {
          "name": "accepter",
          "type": "address"
        },
        {
          "name": "arbiter",
          "type": "address"
        },
        {
          "name": "winningCondition",
          "type": "string"
        }
      ],
      "name": "kill",
      "outputs": [
        {
          "name": "",
          "type": "bytes32"
        }
      ],
      "payable": false,
      "stateMutability": "nonpayable",
      "type": "function"
    },
    {
      "constant": false,
      "inputs": [
        {
          "name": "accepter",
          "type": "address"
        },
        {
          "name": "arbiter",
          "type": "address"
        },
        {
          "name": "winningCondition",
          "type": "string"
        }
      ],
      "name": "createBet",
      "outputs": [
        {
          "name": "",
          "type": "bytes32"
        }
      ],
      "payable": true,
      "stateMutability": "payable",
      "type": "function"
    },
    {
      "constant": true,
      "inputs": [
        {
          "name": "",
          "type": "bytes32"
        }
      ],
      "name": "owner",
      "outputs": [
        {
          "name": "",
          "type": "address"
        },
        {
          "name": "accepter",
          "type": "address"
        },
        {
          "name": "arbiter",
          "type": "address"
        },
        {
          "name": "winningCondition",
          "type": "string"
        },
        {
          "name": "value",
          "type": "uint256"
        },
        {
          "name": "paid",
          "type": "bool"
        },
        {
          "name": "settled",
          "type": "bool"
        }
      ],
      "payable": false,
      "stateMutability": "view",
      "type": "function"
    },
    {
      "constant": true,
      "inputs": [
        {
          "name": "",
          "type": "bytes32"
        }
      ],
      "name": "bets",
      "outputs": [
        {
          "name": "proposer",
          "type": "address"
        },
        {
          "name": "accepter",
          "type": "address"
        },
        {
          "name": "arbiter",
          "type": "address"
        },
        {
          "name": "winningCondition",
          "type": "string"
        },
        {
          "name": "value",
          "type": "uint256"
        },
        {
          "name": "paid",
          "type": "bool"
        },
        {
          "name": "settled",
          "type": "bool"
        }
      ],
      "payable": false,
      "stateMutability": "view",
      "type": "function"
    },
    {
      "inputs": [
        {
          "name": "betHash",
          "type": "bytes32"
        }
      ],
      "payable": true,
      "stateMutability": "payable",
      "type": "function",
      "constant": false,
      "name": "acceptBet",
      "outputs": [
        {
          "name": "",
          "type": "bytes32"
        }
      ]
    },
    {
      "payable": false,
      "stateMutability": "nonpayable",
      "type": "constructor",
      "inputs": []
    },
    {
      "anonymous": false,
      "inputs": [
        {
          "indexed": false,
          "name": "betHash",
          "type": "bytes32"
        }
      ],
      "name": "BetCreated",
      "type": "fallback",
      "payable": true,
      "stateMutability": "payable"
    },
    {
      "anonymous": false,
      "inputs": [
        {
          "indexed": false,
          "name": "betHash",
          "type": "bytes32"
        }
      ],
      "name": "BetCreated",
      "type": "event"
    },
    {
      "anonymous": false,
      "inputs": [
        {
          "indexed": false,
          "name": "betHash",
          "type": "bytes32"
        }
      ],
      "name": "BetCancelled",
      "type": "event"
    },
    {
      "anonymous": false,
      "inputs": [
        {
          "indexed": false,
          "name": "betHash",
          "type": "bytes32"
        }
      ],
      "name": "BetAccepted",
      "type": "event"
    },
    {
      "anonymous": false,
      "inputs": [
        {
          "indexed": false,
          "name": "betHash",
          "type": "bytes32"
        }
      ],
      "name": "BetSettled",
      "type": "event"
    },
    {
      "anonymous": false,
      "inputs": [
        {
          "indexed": false,
          "name": "proposer",
          "type": "address"
        },
        {
          "indexed": false,
          "name": "accepter",
          "type": "address"
        },
        {
          "indexed": false,
          "name": "arbiter",
          "type": "address"
        },
        {
          "indexed": false,
          "name": "winningCondition",
          "type": "string"
        },
        {
          "indexed": false,
          "name": "value",
          "type": "uint256"
        },
        {
          "indexed": false,
          "name": "paid",
          "type": "bool"
        },
        {
          "indexed": false,
          "name": "settled",
          "type": "bool"
        }
      ],
      "name": "BetRetrieved",
      "type": "event"
    }
  ],
  "bytecode": "0x6060604052341561000f57600080fd5b336000806101000a81548173ffffffffffffffffffffffffffffffffffffffff021916908373ffffffffffffffffffffffffffffffffffffffff1602179055506112c48061005e6000396000f30060606040526004361061008e576000357c0100000000000000000000000000000000000000000000000000000000900463ffffffff1680632597f6eb146100905780632940ff1e146100de57806337e8c09e1461012157806341c0e1b5146102775780637f830ada1461028c5780638da5cb5b14610338578063c902c3ae1461038d578063e4a7d11b14610500575b005b341561009b57600080fd5b6100c06004808035600019169060200190919080351515906020019091905050610538565b60405180826000191660001916815260200191505060405180910390f35b34156100e957600080fd5b610103600480803560001916906020019091905050610746565b60405180826000191660001916815260200191505060405180910390f35b341561012c57600080fd5b610146600480803560001916906020019091905050610874565b604051808873ffffffffffffffffffffffffffffffffffffffff1673ffffffffffffffffffffffffffffffffffffffff1681526020018773ffffffffffffffffffffffffffffffffffffffff1673ffffffffffffffffffffffffffffffffffffffff1681526020018673ffffffffffffffffffffffffffffffffffffffff1673ffffffffffffffffffffffffffffffffffffffff168152602001806020018581526020018415151515815260200183151515158152602001828103825286818151815260200191508051906020019080838360005b8381101561023657808201518184015260208101905061021b565b50505050905090810190601f1680156102635780820380516001836020036101000a031916815260200191505b509850505050505050505060405180910390f35b341561028257600080fd5b61028a610c00565b005b61031a600480803573ffffffffffffffffffffffffffffffffffffffff1690602001909190803573ffffffffffffffffffffffffffffffffffffffff1690602001909190803590602001908201803590602001908080601f01602080910402602001604051908101604052809392919081815260200183838082843782019150505050505091905050610c95565b60405180826000191660001916815260200191505060405180910390f35b341561034357600080fd5b61034b610fe6565b604051808273ffffffffffffffffffffffffffffffffffffffff1673ffffffffffffffffffffffffffffffffffffffff16815260200191505060405180910390f35b341561039857600080fd5b6103b260048080356000191690602001909190505061100b565b604051808873ffffffffffffffffffffffffffffffffffffffff1673ffffffffffffffffffffffffffffffffffffffff1681526020018773ffffffffffffffffffffffffffffffffffffffff1673ffffffffffffffffffffffffffffffffffffffff1681526020018673ffffffffffffffffffffffffffffffffffffffff1673ffffffffffffffffffffffffffffffffffffffff1681526020018060200185815260200184151515158152602001831515151581526020018281038252868181546001816001161561010002031660029004815260200191508054600181600116156101000203166002900480156104eb5780601f106104c0576101008083540402835291602001916104eb565b820191906000526020600020905b8154815290600101906020018083116104ce57829003601f168201915b50509850505050505050505060405180910390f35b61051a6004808035600019169060200190919050506110c6565b60405180826000191660001916815260200191505060405180910390f35b60008060016000856000191660001916815260200190815260200160002090503373ffffffffffffffffffffffffffffffffffffffff168160020160009054906101000a900473ffffffffffffffffffffffffffffffffffffffff1673ffffffffffffffffffffffffffffffffffffffff161415156105b657600080fd5b600115158160050160009054906101000a900460ff1615151415156105da57600080fd5b600015158160050160019054906101000a900460ff1615151415156105fe57600080fd5b8215610674578060000160009054906101000a900473ffffffffffffffffffffffffffffffffffffffff1673ffffffffffffffffffffffffffffffffffffffff166108fc60028360040154029081150290604051600060405180830381858888f19350505050151561066f57600080fd5b6106e0565b8060010160009054906101000a900473ffffffffffffffffffffffffffffffffffffffff1673ffffffffffffffffffffffffffffffffffffffff166108fc60028360040154029081150290604051600060405180830381858888f1935050505015156106df57600080fd5b5b60018160050160016101000a81548160ff0219169083151502179055507ff04eba63c96984824af8d244b66ec3f4b3980fe2dafd9140657371787d4370738460405180826000191660001916815260200191505060405180910390a18391505092915050565b60008060016000846000191660001916815260200190815260200160002090503373ffffffffffffffffffffffffffffffffffffffff168160000160009054906101000a900473ffffffffffffffffffffffffffffffffffffffff1673ffffffffffffffffffffffffffffffffffffffff161415156107c457600080fd5b600015158160050160009054906101000a900460ff1615151415156107e857600080fd5b3373ffffffffffffffffffffffffffffffffffffffff166108fc82600401549081150290604051600060405180830381858888f19350505050151561082c57600080fd5b7f3cbdc7eb21ed81d87dcb35fa352a5e60e8217927182bcb362f37fe6a5fb6bcbd8360405180826000191660001916815260200191505060405180910390a182915050919050565b60008060006108816111df565b600080600080600160008a6000191660001916815260200190815260200160002090507f755090ce4017b2b492c72583650463a749cd8a6f17e721f1d6f3ef5739fbdac18160000160009054906101000a900473ffffffffffffffffffffffffffffffffffffffff168260010160009054906101000a900473ffffffffffffffffffffffffffffffffffffffff168360020160009054906101000a900473ffffffffffffffffffffffffffffffffffffffff168460030185600401548660050160009054906101000a900460ff168760050160019054906101000a900460ff16604051808873ffffffffffffffffffffffffffffffffffffffff1673ffffffffffffffffffffffffffffffffffffffff1681526020018773ffffffffffffffffffffffffffffffffffffffff1673ffffffffffffffffffffffffffffffffffffffff1681526020018673ffffffffffffffffffffffffffffffffffffffff1673ffffffffffffffffffffffffffffffffffffffff168152602001806020018581526020018415151515815260200183151515158152602001828103825286818154600181600116156101000203166002900481526020019150805460018160011615610100020316600290048015610a9a5780601f10610a6f57610100808354040283529160200191610a9a565b820191906000526020600020905b815481529060010190602001808311610a7d57829003601f168201915b50509850505050505050505060405180910390a18060000160009054906101000a900473ffffffffffffffffffffffffffffffffffffffff168160010160009054906101000a900473ffffffffffffffffffffffffffffffffffffffff168260020160009054906101000a900473ffffffffffffffffffffffffffffffffffffffff168360030184600401548560050160009054906101000a900460ff168660050160019054906101000a900460ff16838054600181600116156101000203166002900480601f016020809104026020016040519081016040528092919081815260200182805460018160011615610100020316600290048015610bdf5780601f10610bb457610100808354040283529160200191610bdf565b820191906000526020600020905b815481529060010190602001808311610bc257829003601f168201915b50505050509350975097509750975097509750975050919395979092949650565b6000809054906101000a900473ffffffffffffffffffffffffffffffffffffffff1673ffffffffffffffffffffffffffffffffffffffff163373ffffffffffffffffffffffffffffffffffffffff16141515610c5b57600080fd5b6000809054906101000a900473ffffffffffffffffffffffffffffffffffffffff1673ffffffffffffffffffffffffffffffffffffffff16ff5b60008033858585604051808573ffffffffffffffffffffffffffffffffffffffff1673ffffffffffffffffffffffffffffffffffffffff166c010000000000000000000000000281526014018473ffffffffffffffffffffffffffffffffffffffff1673ffffffffffffffffffffffffffffffffffffffff166c010000000000000000000000000281526014018373ffffffffffffffffffffffffffffffffffffffff1673ffffffffffffffffffffffffffffffffffffffff166c0100000000000000000000000002815260140182805190602001908083835b602083101515610d945780518252602082019150602081019050602083039250610d6f565b6001836020036101000a0380198251168184511680821785525050505050509050019450505050506040518091039020905060e0604051908101604052803373ffffffffffffffffffffffffffffffffffffffff1681526020018673ffffffffffffffffffffffffffffffffffffffff1681526020018573ffffffffffffffffffffffffffffffffffffffff1681526020018481526020013481526020016000151581526020016000151581525060016000836000191660001916815260200190815260200160002060008201518160000160006101000a81548173ffffffffffffffffffffffffffffffffffffffff021916908373ffffffffffffffffffffffffffffffffffffffff16021790555060208201518160010160006101000a81548173ffffffffffffffffffffffffffffffffffffffff021916908373ffffffffffffffffffffffffffffffffffffffff16021790555060408201518160020160006101000a81548173ffffffffffffffffffffffffffffffffffffffff021916908373ffffffffffffffffffffffffffffffffffffffff1602179055506060820151816003019080519060200190610f4e9291906111f3565b506080820151816004015560a08201518160050160006101000a81548160ff02191690831515021790555060c08201518160050160016101000a81548160ff0219169083151502179055509050507f2557b1e10436ec91dce34a59bd5a56d098cd19da2b3ebcd37fdc4b01e378acda8160405180826000191660001916815260200191505060405180910390a1809150509392505050565b6000809054906101000a900473ffffffffffffffffffffffffffffffffffffffff1681565b60016020528060005260406000206000915090508060000160009054906101000a900473ffffffffffffffffffffffffffffffffffffffff16908060010160009054906101000a900473ffffffffffffffffffffffffffffffffffffffff16908060020160009054906101000a900473ffffffffffffffffffffffffffffffffffffffff169080600301908060040154908060050160009054906101000a900460ff16908060050160019054906101000a900460ff16905087565b60008060016000846000191660001916815260200190815260200160002090503373ffffffffffffffffffffffffffffffffffffffff168160010160009054906101000a900473ffffffffffffffffffffffffffffffffffffffff1673ffffffffffffffffffffffffffffffffffffffff1614151561114457600080fd5b600015158160050160009054906101000a900460ff16151514151561116857600080fd5b34816004015414151561117a57600080fd5b60018160050160006101000a81548160ff0219169083151502179055507f22a77e0059555f48715bfc3b25a8bdd9c3271a3c4ccbeaabed90ba39ad128ef38360405180826000191660001916815260200191505060405180910390a182915050919050565b602060405190810160405280600081525090565b828054600181600116156101000203166002900490600052602060002090601f016020900481019282601f1061123457805160ff1916838001178555611262565b82800160010185558215611262579182015b82811115611261578251825591602001919060010190611246565b5b50905061126f9190611273565b5090565b61129591905b80821115611291576000816000905550600101611279565b5090565b905600a165627a7a7230582044d0b22c0d8dfe7dca50392eeead09a4a1daaf639470e72eaf8903a0c462a02c0029",
  "source": "pragma solidity ^0.4.17;\n\ncontract BarBet {\n    // owner of the contract\n    address public owner;\n    \n    // struct to represent a bet made between\n    // two addresses\n    struct Bet {\n        // gambler who wants condition to be true\n        address proposer;\n        // gambler who wants condition to be false\n        address accepter;\n        // gambler who determines whether bet was won or lots\n        address arbiter;\n        // if this happens, proposer wins\n        string winningCondition;\n        // each person sends this much money to the contract\n        uint value;\n        // bet has been paid by both parties\n        bool paid;\n        // bet has been settled by arbiter\n        bool settled;\n    }\n    \n    // mapping of betHashes to bets\n    // hashes are in keccak-256\n    mapping(bytes32 => Bet) public bets;\n    \n    // constructor -- only run at the beginning\n    function BarBet() public {\n        owner = msg.sender;\n    }\n    \n    // function to kill contract\n    // can only be called by owner\n    function kill() public {\n        require(msg.sender == owner);\n        selfdestruct(owner);\n    }\n    \n    // fallback function\n    function() public payable {}\n\n    // events for each function\n    event BetCreated(bytes32 betHash);\n    event BetCancelled(bytes32 betHash);\n    event BetAccepted(bytes32 betHash);\n    event BetSettled(bytes32 betHash);\n    event BetRetrieved(address proposer, address accepter, address arbiter, string winningCondition, uint value, bool paid, bool settled);\n\n    // create a bet as the proposer\n    function createBet(address accepter, address arbiter, string winningCondition) public payable returns (bytes32) {\n        bytes32 betHash = keccak256(msg.sender,accepter,arbiter,winningCondition);\n        bets[betHash] = (Bet(msg.sender, accepter, arbiter, winningCondition, msg.value, false, false));\n        BetCreated(betHash);\n        return betHash;\n    }\n\n    // get a Bet by hash\n    function getBet(bytes32 betHash) public returns (address, address, address, string, uint, bool, bool) {\n        Bet storage b = bets[betHash];\n        BetRetrieved(b.proposer, b.accepter, b.arbiter, b.winningCondition, b.value, b.paid, b.settled);\n        return (b.proposer, b.accepter, b.arbiter, b.winningCondition, b.value, b.paid, b.settled);\n    }\n    \n    // cancel bet as proposer before other side is paid\n    function cancelBet(bytes32 betHash) public returns(bytes32) {\n        Bet storage b = bets[betHash];\n        // make sure it's proposer\n        require(b.proposer == msg.sender);\n        // make sure it hasn't been paid by the other party yet\n        require(b.paid == false);\n        msg.sender.transfer(b.value);\n        BetCancelled(betHash);\n        return betHash;\n    }\n    \n    // accept a bet as the accepter\n    function acceptBet(bytes32 betHash) public payable returns(bytes32) {\n        Bet storage b = bets[betHash];\n        // check to make sure that the bet exists and it's the correct accepter\n        require(b.accepter == msg.sender);\n        // check to make sure it hasn't been paid yet\n        require(b.paid == false);\n        // check to make sure they paid the correct amount\n        require(b.value == msg.value);\n        b.paid = true;\n        BetAccepted(betHash);\n        return betHash;\n    }\n    \n    // settle a bet as the arbiter\n    function settleBet(bytes32 betHash, bool proposerWon) public returns(bytes32) {\n        Bet storage b = bets[betHash];\n        // make sure it's actually the arbiter\n        require(b.arbiter == msg.sender);\n        // make sure it's been paid by both parties\n        require(b.paid == true);\n        // make sure it hasn't been settled yet\n        require(b.settled == false);\n        if (proposerWon) {\n            // if proposer won, send double value\n            // their escrowed funds plus accepter's\n            b.proposer.transfer(b.value*2);\n        } else {\n            b.accepter.transfer(b.value*2);\n        }\n        // mark as settled\n        b.settled = true;\n        BetSettled(betHash);\n        return betHash;\n    }\n}",
  "sourcePath": "/Users/owenauch/git/personal_projects/bar-bet-ethereum/contracts/BarBet.sol",
  "compiler": {
    "name": "solc",
    "version": "0.4.18+commit.9cf6e910.Emscripten.clang"
  },
  "schemaVersion": "1.0.1",
  "updatedAt": "2018-02-21T19:23:17.699Z"
}